:100000000C942A000C94A7040C9447000C9447000D
:100010000C9447000C9447000C9447000C94470044
:100020000C9447000C9447000C9447000C94470034
:100030000C9447000C9447000C9447000C94470024
:100040000C9447000C9447000C9447000C94470014
:100050000C94470011241FBECFE5D8E0DEBFCDBF12
:1000600011E0A0E6B0E0EAEDF0E202C005900D92EA
:10007000A838B107D9F711E0A8E8B1E001C01D9296
:10008000A23BB107E1F70E9400070C946B100C949F
:100090000000672B09F09FC0009711F4D8980895CD
:1000A0008130910511F4D99808958230910511F4A9
:1000B000DA9808958330910511F4DB98089584301F
:1000C000910511F4DC9808958530910511F4DD98BF
:1000D00008958630910511F4DE98089587309105D2
:1000E00011F4DF9808958A30910511F4C0980895AD
:1000F0008B30910511F4C19808958C30910511F45D
:10010000C29808958D30910511F4C39808958E30EA
:10011000910511F4C49808958F30910511F4C59894
:1001200008958031910511F4C698089581319105A3
:1001300011F4C79808958631910511F4A89808958F
:100140008731910511F4A99808958831910511F42A
:10015000AA9808958931910511F4AB9808958A31D0
:10016000910511F4AC9808958B31910511F4AD9877
:1001700008958C31910511F4AE9808958D31910553
:1001800011F4AF9808958E31910511F49098089567
:100190008F31910511F4919808958032910511F4F1
:1001A000929808958132910511F4939808958232BE
:1001B000910511F4949808958332910511F495985E
:1001C00008958432910511F496980895859709F061
:1001D0009FC097980895009711F4D89A0895813098
:1001E000910511F4D99A08958230910511F4DA9AA3
:1001F00008958330910511F4DB9A089584309105B8
:1002000011F4DC9A08958530910511F4DD9A089572
:100210008630910511F4DE9A08958730910511F426
:10022000DF9A08958A30910511F4C09A08958B30B1
:10023000910511F4C19A08958C30910511F4C29A78
:1002400008958D30910511F4C39A08958E3091056B
:1002500011F4C49A08958F30910511F4C59A089548
:100260008031910511F4C69A08958131910511F4F8
:10027000C79A08958631910511F4A89A0895873197
:10028000910511F4A99A08958831910511F4AA9A5B
:1002900008958931910511F4AB9A08958A31910539
:1002A00011F4AC9A08958B31910511F4AD9A08952B
:1002B0008C31910511F4AE9A08958D31910511F4A8
:1002C000AF9A08958E31910511F4909A08958F3167
:1002D000910511F4919A08958032910511F4929A42
:1002E00008958132910511F4939A0895823291050F
:1002F00011F4949A08958332910511F4959A089512
:100300008432910511F4969A0895859709F4979A85
:1003100008950F931F93082F182F80FF05C080E0CA
:1003200090E061E070E004C080E090E060E070E0A8
:100330000E94490011FF05C081E090E061E070E09B
:1003400004C081E090E060E070E00E94490012FF8C
:1003500005C082E090E061E070E004C082E090E0DF
:1003600060E070E00E94490013FF05C083E090E068
:1003700061E070E004C083E090E060E070E00E9423
:10038000490014FF05C08AE190E061E070E004C01C
:100390008AE190E060E070E00E94490015FF05C02E
:1003A0008BE190E061E070E004C08BE190E060E000
:1003B00070E00E94490016FF05C08CE190E061E00A
:1003C00070E004C08CE190E060E070E00E944900C1
:1003D00007FF05C08DE190E061E070E004C08DE1B1
:1003E00090E060E070E00E9449001F910F91089535
:1003F0000F931F93182F86E190E060E070E00E9459
:100400004900812F0E94890188E190E061E070E05D
:100410000E94490000ED17E0C8010197F1F788E15B
:1004200090E060E070E00E944900C8010197F1F798
:100430001F910F91089581E00E94F8010895813085
:1004400029F4862F80580E94F8010895823021F403
:10045000862F80540E94F801089586E190E060E0C4
:1004600070E00E94490088E190E060E070E00E9446
:10047000490080E49CE90197F1F780E30E94F801CC
:1004800080E197E20197F1F780E30E94F80180EDA7
:1004900097E00197F1F780E30E94F80180E29EE483
:1004A0000197F1F788E30E94F8018CE00E94F801BF
:1004B00081E00E94F80186E00E94F80108950F9300
:1004C0001F93182F86E190E061E070E00E944900E0
:1004D000812F0E94890188E190E061E070E00E9434
:1004E000490000ED17E0C8010197F1F788E190E0BD
:1004F00060E070E00E944900C8010197F1F71F9188
:100500000F910895CF93DF93EC0102C00E945F0228
:1005100089918823D9F7DF91CF9108958CE10E94CA
:10052000F801089588E10E94F8010895CF93DF93C0
:10053000C82F80FF05C08AE190E061E070E004C050
:100540008AE190E060E070E00E944900C1FF05C0D0
:100550008BE190E061E070E004C08BE190E060E04E
:1005600070E00E944900C2FF05C08CE190E061E0AC
:1005700070E004C08CE190E060E070E00E9449000F
:10058000C3FF05C08DE190E061E070E004C08DE143
:1005900090E060E070E00E944900DF91CF91089503
:1005A0000F931F93182F86E190E060E070E00E94A7
:1005B0004900812F0E94960288E190E061E070E09E
:1005C0000E94490000ED17E0C8010197F1F788E1AA
:1005D00090E060E070E00E944900C8010197F1F7E7
:1005E0001F910F91089580E00E94D00281E00E9447
:1005F000D00208951F93813019F4162F105804C0AB
:10060000823059F4162F1054812F82958F700E94DA
:10061000D002812F8F700E94D0021F91089580E038
:100620000E94960280E49CE90197F1F783E00E9422
:10063000D00280E197E20197F1F783E00E94D002B7
:1006400080EF95E50197F1F783E00E94D00282E008
:100650000E94D00282E00E94D00288E00E94D00274
:1006600080E00E94D0028CE00E94D00280E00E94D4
:10067000D00286E00E94D0020895FF920F931F934C
:10068000F82E86E190E061E070E00E9449008F2D35
:1006900082958F700E94960288E190E061E070E0A0
:1006A0000E94490000ED17E0C8010197F1F788E1C9
:1006B00090E060E070E00E944900C8010197F1F706
:1006C0008F2D8F700E94960288E190E061E070E0CB
:1006D0000E944900C8010197F1F788E190E060E0CD
:1006E00070E00E944900C8010197F1F71F910F9136
:1006F000FF900895CF93DF93EC0102C00E943D0369
:1007000089918823D9F7DF91CF91089581E00E94E4
:10071000D0028CE00E94D002089581E00E94D002B5
:1007200088E00E94D00208958FEF84BB80EF81BBE8
:1007300017BA12BA18BA0895E0E0F0E061E070E08C
:1007400040E45CE93496CB010E2E02C0880F991F5D
:100750000A94E2F7349782BB20E030E086B390E061
:10076000022E02C0959587950A94E2F780FF0AC091
:10077000EE0FFF1FEE0FFF1FE20FF31FE159FF4FB8
:10078000808108952F5F3F4F2430310539F7CA012A
:100790000197F1F73196E430F105A1F680E0089574
:1007A0004F925F926F927F928F929F92AF92BF9281
:1007B000CF92DF92EF92FF920F931F93CF93DF932D
:1007C0003B014C01442E809189019EE2491799F426
:1007D000882309F0A9C01091AD0181E0612F0E942A
:1007E000FA028EE20E943D031F5F1093AD0181E08B
:1007F0008093890199C08130A1F5642F70E0605326
:100800007040882777FD8095982F0E94A70A2DECCD
:100810003CEC4CEC5DE30E94D1089B01AC01C401AF
:10082000B3010E94A4083B014C011091AD0181E08D
:10083000612F0E94FA02842D0E943D031F5F1093D6
:10084000AD0182E08093890180E090E0A0E2B1E414
:1008500080938D0190938E01A0938F01B0939001AE
:1008600063C05090AD01C42FD0E08230C9F5A09094
:100870008D01B0908E01C0908F01D0909001E097D3
:10088000BE01882777FD8095982F0E94A70A7B01DB
:100890008C016DEC7CEC8CEC9DE3A60195010E9433
:1008A000CB099B01AC01C801B7010E94D1089B0193
:1008B000AC01C401B3010E94A4083B014C01C60174
:1008C000B50120E030E040E251E40E94D10860939D
:1008D0008D0170938E0180938F01909390011AC0C7
:1008E000C401B30120E030E040E251E40E94D108AD
:1008F0007B018C01E097BE01882777FD8095982FBA
:100900000E94A70A9B01AC01C801B7010E94A4087C
:100910003B014C0181E0652D0E94FA02842D0E946A
:100920003D0353945092AD01B301C401DF91CF91C7
:100930001F910F91FF90EF90DF90CF90BF90AF90FD
:100940009F908F907F906F905F904F9008951F922F
:100950000F920FB60F9211242F933F934F935F93F3
:100960006F937F938F939F93AF93BF93EF93FF9377
:100970000E94F30280E49CE90197F1F780E090E0A7
:10098000A0E0B0E08093A5019093A601A093A701F9
:10099000B093A8018093A9019093AA01A093AB0101
:1009A000B093AC011092AD018093AE019093AF0172
:1009B000A093B001B093B1011092890110928A0105
:1009C00010928B0110928C01FF91EF91BF91AF912A
:1009D0009F918F917F916F915F914F913F912F9157
:1009E0000F900FBE0F901F9018958F929F92AF920D
:1009F000BF92CF92DF92EF92FF920F931F93CF930C
:100A0000DF937B018C015A0169010E94050B4B01A8
:100A1000C1E0D0E020E030E00CC0CE01880F991F8B
:100A200043E0CC0FDD1F4A95E1F7C80FD91F2F5FB8
:100A30003F4F2C153D058CF3C401B5014AE050E051
:100A40000E94850DF50160E070E001C0B601DF0194
:100A500081916B010894C11CD11C8823B9F78EE2E7
:100A60008C93B401882777FD8095982F0E94A70A60
:100A70009B01AC01C801B7010E9473087B018C0186
:100A8000BE01882777FD8095982F0E94A70A9B01B9
:100A9000AC01C801B7010E94D10820E030E040E07D
:100AA0005FE30E94A4080E94050BDC01CB01CA0C85
:100AB000DB1CB6014AE050E00E94850DDF91CF912A
:100AC0001F910F91FF90EF90DF90CF90BF90AF906C
:100AD0009F908F900895AF92BF92CF92DF92EF9246
:100AE000FF920F931F93082F8E3219F080538A3094
:100AF00078F580918A018823A1F46091A901709111
:100B0000AA018091AB019091AC01402F0E94D003CB
:100B10006093A9017093AA018093AB019093AC01FB
:100B200066C181E080938A016091AE017091AF014E
:100B30008091B0019091B101402F0E94D003609349
:100B4000AE017093AF018093B0019093B1014FC19A
:100B50000D3309F000C180918A018823A9F482E055
:100B600061E00E94FA02E090A901F090AA010091D0
:100B7000AB011091AC01E092A501F092A6010093A7
:100B8000A7011093A80193C010928A018091880157
:100B90008F3209F445C0803330F48B3241F08D320E
:100BA00009F079C017C0883709F075C026C0609178
:100BB000A9017091AA018091AB019091AC012091A3
:100BC000AE013091AF014091B0015091B1010E944E
:100BD000A4084DC06091A9017091AA018091AB0158
:100BE0009091AC012091AE013091AF014091B001E4
:100BF0005091B1010E9473083AC06091A9017091AF
:100C0000AA018091AB019091AC012091AE0130918D
:100C1000AF014091B0015091B1010E94D10827C0AD
:100C2000E090AE01F090AF010091B0011091B101E0
:100C3000C801B70120E030E040E050E00E94770AB0
:100C4000882349F482E061E00E94FA0283E690E0A2
:100C50000E947A0320C06091A9017091AA0180913D
:100C6000AB019091AC01A80197010E94CB09DC0176
:100C70009B01AC012093A5013093A6014093A701ED
:100C80005093A801CB018093A9019093AA01A0934E
:100C9000AB01B093AC0182E061E00E94FA02E09007
:100CA000A501F090A6010091A7011091A801C8012B
:100CB000B7010E94050B5B016C01B501882777FD28
:100CC0008095982F0E94A70A9B01AC01C801B7012B
:100CD0000E94730820E030E040E050E00E94770A74
:100CE00041E951E08823E9F400D000D000D0EDB70D
:100CF000FEB73196ADB7BEB712965C934E9311977F
:100D000080E690E093838283B582A4820E94A60D40
:100D10008DB79EB706960FB6F8949EBF0FBE8DBFD7
:100D200006C0C801B70122E030E00E94F50481E965
:100D300091E00E947A0381E080938C0180E090E052
:100D4000A0E0B0E08093AE019093AF01A093B0011A
:100D5000B093B1014CC080E090E0A0E0B0E080939F
:100D60008D0190938E01A0938F01B093900180919B
:100D70008C01813029F50E94F30280E49CE90197FF
:100D8000F1F781E060E00E94FA028BE690E00E94B9
:100D90007A0383E08093AD018091A5019091A60133
:100DA000A091A701B091A8018093A9019093AA01F5
:100DB000A093AB01B093AC0110928A0110928C0108
:100DC00080918A01813099F01091AD0181E0612F0D
:100DD0000E94FA02802F0E943D031F5F1093AD0115
:100DE0000093880181E080938A01109289011F910C
:100DF0000F91FF90EF90DF90CF90BF90AF9008954C
:100E0000CF93DF938FEF84BB80EF81BB17BA12BA09
:100E100018BA0E940F0315BE80E48BBF82E061E028
:100E20000E94FA0283E690E00E947A037894C8EC6C
:100E3000D0E00E949C038823E1F30E946B0580EFC1
:100E400095E5FE013197F1F70197D9F7F2CFA0E0D0
:100E5000B0E0EDE2F7E00C944E0DDC012B01FA015D
:100E60009C91923008F439C1EB018881823008F4FA
:100E700033C1943069F4843009F02FC111969C91EC
:100E800011978981981709F428C1AFE7B0E025C10F
:100E9000843009F421C18230A9F4923009F01DC1D7
:100EA0009A01AD0188E0EA010990AE01E9010992D9
:100EB0009E018150C1F7E201898111969C9189239D
:100EC000818308C1923009F407C112962D903C909D
:100ED0001397EB018A819B811496AD90BD90CD90C4
:100EE000DC901797EC80FD800E811F819101281BFB
:100EF000390BB90137FF04C066277727621B730BD4
:100F0000603271050CF061C0121613066CF53701E2
:100F10004801062E04C096948794779467940A94A7
:100F2000D2F721E030E040E050E004C0220F331F50
:100F3000441F551F6A95D2F7215030404040504021
:100F40002E213F2140235123211531054105510513
:100F500021F021E030E040E050E079018A01E6280C
:100F6000F728082919293CC0232BD1F1260E371E5A
:100F700035014601062E04C09694879477946794B1
:100F80000A94D2F721E030E040E050E004C0220FA4
:100F9000331F441F551F6A95D2F7215030404040FF
:100FA00050402A213B214C215D212115310541056D
:100FB000510521F021E030E040E050E059016A01A4
:100FC000A628B728C828D9280BC0821593052CF06D
:100FD0001C01AA24BB24650103C0EE24FF24870161
:100FE00011969C91D20111968C91981709F445C0E5
:100FF000992339F0A80197012A193B094C095D0989
:1010000006C0A60195012E193F09400B510B57FD53
:1010100008C011823382228224833583468357831A
:101020001DC081E081833382228288279927DC01D9
:10103000821B930BA40BB50B84839583A683B78384
:101040000DC0220F331F441F551F24833583468351
:101050005783828193810197938382832481358191
:1010600046815781DA01C9010197A109B1098F5F52
:101070009F4FAF4FBF4328F30BC09183338222822F
:10108000EA0CFB1C0C1D1D1DE482F58206831783F0
:1010900083E08083248135814681578157FF1AC0C0
:1010A000C901AA2797FDA095BA2F81709070A070F2
:1010B000B0705695479537952795822B932BA42B87
:1010C000B52B84839583A683B78382819381019610
:1010D00093838283DF0101C0D201CD01CDB7DEB79A
:1010E000E2E10C946A0DA0E2B0E0E9E7F8E00C94CC
:1010F0005A0D69837A838B839C832D833E834F8330
:101100005887E9E0EE2EF12CEC0EFD1ECE01019683
:10111000B7010E947D0C8E010F5E1F4FCE01059618
:10112000B8010E947D0C8A8991E089278A8BC701CA
:10113000B801AE01475E5F4F0E9427070E94A80BCF
:10114000A096E6E00C94760DA0E2B0E0EAEAF8E0C2
:101150000C945A0D69837A838B839C832D833E8301
:101160004F835887F9E0EF2EF12CEC0EFD1ECE01D7
:101170000196B7010E947D0C8E010F5E1F4FCE01BC
:101180000596B8010E947D0CC701B801AE01475E0B
:101190005F4F0E9427070E94A80BA096E6E00C94E0
:1011A000760DA0E2B0E0E7EDF8E00C944E0D698317
:1011B0007A838B839C832D833E834F835887CE0114
:1011C0000196BE01675F7F4F0E947D0CCE010596A0
:1011D000BE016F5E7F4F0E947D0C9985923088F032
:1011E00089898230C8F0943019F4823051F404C0F7
:1011F000843029F4923081F48FE790E0C6C09230B9
:1012000049F420E09A858A89981321E02A87CE0143
:101210000996BBC0823049F420E09A858A899813E8
:1012200021E02A8BCE014196B0C02D843E844F84AC
:1012300058886D887E888F88988CEE24FF248701DB
:10124000AA24BB24650140E050E060E070E0E0E0EB
:10125000F0E0C10181709070892BE9F0E60CF71C79
:10126000081D191D9A01AB012A0D3B1D4C1D5D1D6A
:1012700080E090E0A0E0B0E0E614F704080519056E
:1012800020F481E090E0A0E0B0E0BA01A901480FAD
:10129000591F6A1F7B1FAA0CBB1CCC1CDD1C97FEB0
:1012A00008C081E090E0A0E0B0E0A82AB92ACA2AEC
:1012B000DB2A3196E032F10549F0660C771C881C78
:1012C000991C5694479437942794C3CFFA85EA899A
:1012D0002B893C898B859C85280F391F2E5F3F4FBA
:1012E00017C0CA0181709070892B61F0169507951F
:1012F000F794E79480E090E0A0E0B0E8E82AF92ACB
:101300000A2B1B2B76956795579547952F5F3F4F77
:1013100077FDE7CF0CC0440F551F661F771F17FDE1
:101320004160EE0CFF1C001F111F21503040403067
:1013300090E0590790E0690790E4790760F32B8FFC
:101340003C8FDB01CA018F779070A070B070803441
:101350009105A105B10561F447FD0AC0E114F1044E
:101360000105110529F0405C5F4F6F4F7F4F4078BA
:101370001A8EFE1711F081E08A8F4D8F5E8F6F8F6E
:1013800078A383E0898FCE0149960E94A80BA0968E
:10139000E2E10C946A0DA8E1B0E0E1EDF9E00C9413
:1013A000560D69837A838B839C832D833E834F8381
:1013B0005887B9E0EB2EF12CEC0EFD1ECE01019604
:1013C000B7010E947D0C8E010F5E1F4FCE01059666
:1013D000B8010E947D0C2985223008F47EC039892D
:1013E000323010F4B8017CC08A859A8989278A87AF
:1013F000243011F0223031F4231709F06EC06FE76A
:1014000070E06EC0343039F41D861E861F86188A3F
:101410001C861B8604C0323021F484E08987B70122
:101420005FC02B853C858B899C89281B390B3C87A9
:101430002B87ED84FE840F851889AD88BE88CF8800
:10144000D88CEA14FB040C051D0540F4EE0CFF1CBF
:10145000001F111F215030403C872B8720E030E0D7
:1014600040E050E080E090E0A0E0B0E460E070E0B8
:10147000EA14FB040C051D0540F0282B392B4A2BE0
:101480005B2BEA18FB080C091D09B695A7959795E3
:101490008795EE0CFF1C001F111F6F5F7F4F6F3190
:1014A000710531F7DA01C9018F779070A070B070C3
:1014B00080349105A105B10561F427FD0AC0E1144E
:1014C000F1040105110529F0205C3F4F4F4F5F4F9C
:1014D00020782D873E874F87588BBE01675F7F4FEF
:1014E000CB010E94A80B6896EAE00C94720DA8E16B
:1014F000B0E0EDE7FAE00C945A0D69837A838B83B0
:101500009C832D833E834F83588789E0E82EF12CFE
:10151000EC0EFD1ECE010196B7010E947D0C8E01DE
:101520000F5E1F4FCE010596B8010E947D0C898584
:10153000823040F08989823028F0C701B8010E94CA
:10154000F50C01C081E06896E6E00C94760DA8E009
:10155000B0E0EDEAFAE00C94570D9B01AC0183E09A
:101560008983DA01C9018827B7FD83959927AA27BE
:10157000BB27B82E211531054105510519F482E02C
:1015800089833AC08823A9F0203080E0380780E0C2
:10159000480780E8580729F460E070E080E09FEC9D
:1015A00030C0EE24FF248701E21AF30A040B150B66
:1015B00002C079018A018EE1C82ED12CDC82CB8257
:1015C000ED82FE820F831887C801B7010E94590B74
:1015D00001971816190684F4082E04C0EE0CFF1C9F
:1015E000001F111F0A94D2F7ED82FE820F83188725
:1015F000C81AD90ADC82CB82BA82CE0101960E9437
:10160000A80B2896E9E00C94730DACE0B0E0EBE099
:10161000FBE00C945E0D69837A838B839C83CE01FF
:101620000196BE016B5F7F4F0E947D0C8D818230E1
:1016300061F1823050F1843021F48E81882351F1A0
:101640002EC02F81388537FD20C06E812F313105A6
:101650001CF06623F9F023C08EE190E0821B930B0F
:1016600029853A854B855C8504C056954795379505
:1016700027958A95D2F76623B1F05095409530951D
:1016800021953F4F4F4F5F4F0EC020E030E040E0CC
:1016900050E009C02FEF3FEF4FEF5FE704C020E0BD
:1016A00030E040E050E8B901CA012C96E2E00C9429
:1016B0007A0DEF92FF920F931F937B018C0180E0D4
:1016C000E81680E0F80681E0080780E0180788F453
:1016D0008FEFE816F1040105110531F028F088E0DC
:1016E00090E0A0E0B0E017C080E090E0A0E0B0E0C3
:1016F00012C080E0E81680E0F80680E0080781E08C
:10170000180728F088E190E0A0E0B0E004C080E194
:1017100090E0A0E0B0E020E230E040E050E0281BA4
:10172000390B4A0B5B0B04C016950795F794E794A9
:101730008A95D2F7F701E957FF4F8081281B3109BD
:1017400041095109C9011F910F91FF90EF90089530
:10175000DF92EF92FF920F931F93FC01E480F580DC
:1017600006811781D1808081823048F480E090E04A
:10177000A0E1B0E0E82AF92A0A2B1B2BA5C084308F
:1017800009F49FC0823021F4EE24FF24870105C0B4
:10179000E114F1040105110519F4E0E0F0E096C050
:1017A000628173819FEF623879070CF05BC022E899
:1017B0003FEF261B370B2A3131052CF020E030E0BB
:1017C00040E050E02AC0B801A701022E04C076957F
:1017D0006795579547950A94D2F781E090E0A0E08D
:1017E000B0E004C0880F991FAA1FBB1F2A95D2F72B
:1017F0000197A109B1098E219F21A023B123009750
:10180000A105B10521F081E090E0A0E0B0E09A01EF
:10181000AB01282B392B4A2B5B2BDA01C9018F77BF
:101820009070A070B07080349105A105B10539F4B5
:1018300027FF09C0205C3F4F4F4F5F4F04C0215C22
:101840003F4F4F4F5F4FE0E0F0E02030A0E03A071D
:10185000A0E04A07A0E45A0710F0E1E0F0E07901C7
:101860008A0127C06038710564F5FB01E158FF4F1C
:10187000D801C7018F779070A070B0708034910547
:10188000A105B10539F4E7FE0DC080E490E0A0E0C9
:10189000B0E004C08FE390E0A0E0B0E0E80EF91EF5
:1018A0000A1F1B1F17FF05C016950795F794E794AD
:1018B000319687E016950795F794E7948A95D1F7C6
:1018C00005C0EE24FF248701EFEFF0E06E2F67954F
:1018D00066276795902F9F77D794DD24D7948E2F16
:1018E0008695492F462B582F5D29B701CA011F91B4
:1018F0000F91FF90EF90DF900895FC01DB01408194
:1019000051812281622F6F7770E0221F2227221FD0
:101910009381892F880F822B282F30E0991F9927D8
:10192000991F11969C93119721153105A9F5411521
:1019300051056105710511F482E037C082E89FEF1F
:1019400013969C938E9312979A01AB0167E0220F36
:10195000331F441F551F6A95D1F783E08C930DC048
:10196000220F331F441F551F12968D919C91139780
:10197000019713969C938E931297203080E038073E
:1019800080E0480780E4580758F314962D933D9360
:101990004D935C93179708952F3F310579F44115C6
:1019A00051056105710519F484E08C93089564FF75
:1019B00003C081E08C9312C01C9210C02F5730409E
:1019C00013963C932E93129783E08C9387E0440FF9
:1019D000551F661F771F8A95D1F7706414964D9333
:1019E0005D936D937C93179708951F93DC01FB0122
:1019F0009C91923008F447C08081823008F443C043
:101A0000943051F411961C91843099F58181682F9E
:101A100070E0611B71093FC0843021F0923031F4D5
:101A20008230B9F18181882389F12DC011961C91F2
:101A300011978230F1F081811817D9F412962D9107
:101A40003C911397828193818217930794F0281712
:101A50003907BCF014968D919D910D90BC91A02DED
:101A60002481358146815781281739074A075B074A
:101A700018F4112341F00AC082179307A407B50791
:101A800040F4112319F061E070E005C06FEF7FEFC3
:101A900002C060E070E0CB011F9108952F923F9249
:101AA0004F925F926F927F928F929F92AF92BF926E
:101AB000CF92DF92EF92FF920F931F93CF93DF931A
:101AC000CDB7DEB7CA1BDB0B0FB6F894DEBF0FBE77
:101AD000CDBF09942A88398848885F846E847D84C4
:101AE0008C849B84AA84B984C884DF80EE80FD80C6
:101AF0000C811B81AA81B981CE0FD11D0FB6F8943C
:101B0000DEBF0FBECDBFED010895FB019F01E8943C
:101B10004230C4F04532B4F44A3029F497FB1EF445
:101B2000909581959F4F642F77270E945710805D75
:101B30008A330CF0895D8193CB010097A1F716F4ED
:101B40005DE251931082C9010C94BD0FAEE0B0E08C
:101B5000ECEAFDE00C945C0D0D891E8986E08C8317
:101B60001A8309838FEF9FE79E838D839E01275EF3
:101B70003F4FCE0101966F89788DA9010E94CA0D51
:101B80002F813885020F131FF80110822E96E4E092
:101B90000C94780DABE0B0E0E0EDFDE00C944E0D60
:101BA0003C012B015A01FC0117821682838181FDC1
:101BB00003C06FEF7FEFC6C19AE0892E1E01089423
:101BC000211C311CF3012381F20123FD859123FFA8
:101BD00081912F01882309F4B2C1853239F423FDA4
:101BE000859123FF81912F01853229F490E0B30183
:101BF0000E94CD0FE7CF982FFF24EE249924FFE118
:101C0000FF15D0F09B3269F09C3228F4903259F0E5
:101C1000933291F40EC09D3249F0903369F441E063
:101C200024C052E0F52A84E0F82A28C098E0F92A76
:101C300025C0E0E1FE2A22C0F7FC29C0892F80538D
:101C40008A3070F4F6FE05C0989C902C1124980EF2
:101C500015C0E89CE02C1124E80EF0E2FF2A0EC02B
:101C60009E3229F4F6FC6BC140E4F42A07C09C368E
:101C700019F450E8F52A02C0983649F4F20123FD20
:101C8000959123FF91912F01992309F0B8CF892FC6
:101C90008554833018F08052833038F444E050E0AB
:101CA000A40EB51E5FE359830FC0933631F093370E
:101CB00079F0933509F056C020C0F5018081898301
:101CC00042E050E0A40EB51E610101E010E012C038
:101CD000F501C080D180F6FC03C06FEF7FEF02C03A
:101CE000692D70E042E050E0A40EB51EC6010E94CE
:101CF000B20F8C015FE7F52214C0F501C080D180DE
:101D0000F6FC03C06FEF7FEF02C0692D70E042E088
:101D100050E0A40EB51EC6010E94A70F8C0150E82A
:101D2000F52AF3FE07C01AC080E290E0B3010E94DA
:101D3000CD0FEA948E2D90E008171907A8F30EC076
:101D4000F601F7FC8591F7FE81916F0190E0B301F8
:101D50000E94CD0FE110EA940150104001151105C9
:101D600079F7EAC0943611F0993669F5F7FE08C0A4
:101D7000F501208131814281538184E090E00AC0E5
:101D8000F501808191819C01442737FD4095542FB6
:101D900082E090E0A80EB91E9FE6F92257FF09C025
:101DA00050954095309521953F4F4F4F5F4FE0E85C
:101DB000FE2ACA01B901A1012AE030E00E94F90F10
:101DC000D82ED21840C0953729F41F2D1F7E2AE047
:101DD00030E01DC01F2D197F9F3661F0903720F431
:101DE000983509F0ACC00FC0903739F0983709F03A
:101DF000A6C004C028E030E00AC0106114FD1460E1
:101E000020E130E004C014FD166020E132E017FF4D
:101E100008C0F501608171818281938144E050E0C6
:101E200008C0F50180819181BC0180E090E042E032
:101E300050E0A40EB51EA1010E94F90FD82ED218B1
:101E40008FE7F82EF122F6FE0BC05EEFF522D914D3
:101E500038F4F4FE07C0F2FC05C08FEEF82202C091
:101E60001D2D01C0192DF4FE0DC0FE01ED0DF11D5B
:101E70008081803319F499EEF92208C01F5FF2FEC9
:101E800005C003C08F2D867809F01F5F0F2DF3FC6E
:101E900014C0F0FE0FC01E1510F09D2C0BC09D2C21
:101EA0009E0C911A1E2D06C080E290E0B3010E94A4
:101EB000CD0F1F5F1E15C0F304C01E1510F4E11AEC
:101EC00001C0EE2404FF0FC080E390E0B3010E9444
:101ED000CD0F02FF1DC001FD03C088E790E00EC0DA
:101EE00088E590E00BC0802F867891F001FF02C05A
:101EF0008BE201C080E2F7FC8DE290E0B3010E942A
:101F0000CD0F06C080E390E0B3010E94CD0F9A94FC
:101F1000D914C0F3DA94F101ED0DF11D808190E048
:101F2000B3010E94CD0FDD20A9F706C080E290E04A
:101F3000B3010E94CD0FEA94EE20C1F743CEF30126
:101F400066817781CB012B96E2E10C946A0DFC014E
:101F50000590615070400110D8F7809590958E0FD4
:101F60009F1F0895FC016150704001900110D8F747
:101F7000809590958E0F9F1F0895DC01FC01672FBF
:101F800071917723E1F7329704C07C916D93708350
:101F90006291AE17BF07C8F308950F931F93CF93B5
:101FA000DF938C01EB018B8181FF1BC082FF0DC091
:101FB0002E813F818C819D812817390764F4E88147
:101FC000F9810193F983E88306C0E885F985802FBC
:101FD0000995892B31F48E819F8101969F838E8391
:101FE00002C00FEF1FEFC801DF91CF911F910F913A
:101FF0000895FA01AA27283051F1203181F1E8949F
:102000006F936E7F6E5F7F4F8F4F9F4FAF4FB1E0EB
:102010003ED0B4E03CD0670F781F891F9A1FA11DE6
:10202000680F791F8A1F911DA11D6A0F711D811DE7
:10203000911DA11D20D009F468943F912AE0269FAC
:1020400011243019305D3193DEF6CF010895462F0B
:102050004770405D4193B3E00FD0C9F7F6CF462FEC
:102060004F70405D4A3318F0495D31FD4052419355
:1020700002D0A9F7EACFB4E0A69597958795779512
:102080006795BA95C9F700976105710508959B0199
:10209000AC010A2E06945795479537952795BA9522
:1020A000C9F7620F731F841F951FA01D0895AA1BF7
:1020B000BB1B51E107C0AA1FBB1FA617B70710F033
:1020C000A61BB70B881F991F5A95A9F78095909565
:0A20D000BC01CD010895F894FFCF84
:1020DA00256400494E56414C494400414E53003153
:1020EA0032332F343536783738392D2E303D2B00A0
:1020FA0000000000000000000102020303030304C1
:10210A00040404040404040505050505050505057C
:10211A00050505050505050606060606060606065C
:10212A000606060606060606060606060606060645
:10213A00060606060606060707070707070707072C
:10214A000707070707070707070707070707070715
:10215A000707070707070707070707070707070705
:10216A0007070707070707070707070707070707F5
:10217A0007070707070707080808080808080808DC
:10218A0008080808080808080808080808080808C5
:10219A0008080808080808080808080808080808B5
:1021AA0008080808080808080808080808080808A5
:1021BA000808080808080808080808080808080895
:1021CA000808080808080808080808080808080885
:1021DA000808080808080808080808080808080875
:1021EA000808080808080808080808080808080865
:0821FA000808080808080800A5
:00000001FF
